{
  "contractName": "CampaignManager",
  "abi": [
    {
      "constant": true,
      "inputs": [],
      "name": "totalCampaigns",
      "outputs": [
        {
          "name": "",
          "type": "uint256"
        }
      ],
      "payable": false,
      "stateMutability": "view",
      "type": "function"
    },
    {
      "inputs": [],
      "payable": false,
      "stateMutability": "nonpayable",
      "type": "constructor"
    },
    {
      "anonymous": false,
      "inputs": [
        {
          "indexed": true,
          "name": "campaignId",
          "type": "uint256"
        },
        {
          "indexed": false,
          "name": "campaignAddr",
          "type": "address"
        }
      ],
      "name": "LogCampaignCreated",
      "type": "event"
    },
    {
      "constant": false,
      "inputs": [
        {
          "name": "_name",
          "type": "bytes32"
        },
        {
          "name": "_description",
          "type": "bytes32"
        },
        {
          "name": "_goal",
          "type": "uint256"
        },
        {
          "name": "_weeksDuration",
          "type": "uint256"
        }
      ],
      "name": "addNew",
      "outputs": [],
      "payable": false,
      "stateMutability": "nonpayable",
      "type": "function"
    },
    {
      "constant": true,
      "inputs": [
        {
          "name": "_campaignId",
          "type": "uint256"
        }
      ],
      "name": "getCampaignAddress",
      "outputs": [
        {
          "name": "",
          "type": "address"
        }
      ],
      "payable": false,
      "stateMutability": "view",
      "type": "function"
    }
  ],
  "bytecode": "0x608060405234801561001057600080fd5b5060008081905550610a39806100276000396000f300608060405260043610610057576000357c0100000000000000000000000000000000000000000000000000000000900463ffffffff16806302932f561461005c5780632c935b2814610087578063e1231ec5146100da575b600080fd5b34801561006857600080fd5b50610071610147565b6040518082815260200191505060405180910390f35b34801561009357600080fd5b506100d860048036038101908080356000191690602001909291908035600019169060200190929190803590602001909291908035906020019092919050505061014d565b005b3480156100e657600080fd5b5061010560048036038101908080359060200190929190505050610278565b604051808273ffffffffffffffffffffffffffffffffffffffff1673ffffffffffffffffffffffffffffffffffffffff16815260200191505060405180910390f35b60005481565b60008484848461015b6102b5565b8085600019166000191681526020018460001916600019168152602001838152602001828152602001945050505050604051809103906000f0801580156101a6573d6000803e3d6000fd5b50905080600160008054815260200190815260200160002060006101000a81548173ffffffffffffffffffffffffffffffffffffffff021916908373ffffffffffffffffffffffffffffffffffffffff1602179055506000547f2fe0b018f0b9716230049a356e10ee0203774e2a3ec746450cb041e4dfbfbd5c82604051808273ffffffffffffffffffffffffffffffffffffffff1673ffffffffffffffffffffffffffffffffffffffff16815260200191505060405180910390a26000808154600101919050819055505050505050565b60006001600083815260200190815260200160002060009054906101000a900473ffffffffffffffffffffffffffffffffffffffff169050919050565b604051610748806102c6833901905600608060405234801561001057600080fd5b50604051608080610748833981018060405281019080805190602001909291908051906020019092919080519060200190929190805190602001909291905050508360008160001916905550826001816000191690555081600281905550806008819055506000600a60006101000a81548160ff0219169083151502179055506000600a60016101000a81548160ff0219169083151502179055506000600a60026101000a81548160ff0219169083151502179055506000600a60036101000a81548160ff02191690831515021790555033600760006101000a81548173ffffffffffffffffffffffffffffffffffffffff021916908373ffffffffffffffffffffffffffffffffffffffff16021790555050505050610613806101356000396000f3006080604052600436106100b9576000357c0100000000000000000000000000000000000000000000000000000000900463ffffffff168062e856b1146100cb57806306fdde03146100d557806325677e4f1461010857806340193883146101335780635a9b0b891461015e5780635b980628146101b45780636665e47b146101cb57806371aac7f9146101f65780637284e41614610225578063a8b78ed014610258578063c5c4744c14610287578063c84477f1146102b2575b3480156100c557600080fd5b50600080fd5b6100d36102dd565b005b3480156100e157600080fd5b506100ea6103cd565b60405180826000191660001916815260200191505060405180910390f35b34801561011457600080fd5b5061011d6103d3565b6040518082815260200191505060405180910390f35b34801561013f57600080fd5b506101486103d9565b6040518082815260200191505060405180910390f35b34801561016a57600080fd5b506101736103df565b604051808760001916600019168152602001868152602001858152602001848152602001838152602001828152602001965050505050505060405180910390f35b3480156101c057600080fd5b506101c961040e565b005b3480156101d757600080fd5b506101e06104c7565b6040518082815260200191505060405180910390f35b34801561020257600080fd5b5061020b6104cd565b604051808215151515815260200191505060405180910390f35b34801561023157600080fd5b5061023a610537565b60405180826000191660001916815260200191505060405180910390f35b34801561026457600080fd5b5061026d61053d565b604051808215151515815260200191505060405180910390f35b34801561029357600080fd5b5061029c6105db565b6040518082815260200191505060405180910390f35b3480156102be57600080fd5b506102c76105e1565b6040518082815260200191505060405180910390f35b6000600960003373ffffffffffffffffffffffffffffffffffffffff1673ffffffffffffffffffffffffffffffffffffffff16815260200190815260200160002054141561033657600360008154600101919050819055505b34600960003373ffffffffffffffffffffffffffffffffffffffff1673ffffffffffffffffffffffffffffffffffffffff1681526020019081526020016000205401600960003373ffffffffffffffffffffffffffffffffffffffff1673ffffffffffffffffffffffffffffffffffffffff1681526020019081526020016000208190555034600660008282540192505081905550565b60005481565b60045481565b60025481565b600080600080600080600054600454600554600354600654600254955095509550955095509550909192939495565b600a60019054906101000a900460ff1680156104365750600a60029054906101000a900460ff165b801561044f5750600a60039054906101000a900460ff16155b151561045a57600080fd5b600760009054906101000a900473ffffffffffffffffffffffffffffffffffffffff1673ffffffffffffffffffffffffffffffffffffffff166108fc6006549081150290604051600060405180830381858888f193505050501580156104c4573d6000803e3d6000fd5b50565b60035481565b6000426005541080156104ed5750600a60019054906101000a900460ff16155b15156104f857600080fd5b6001600a60016101000a81548160ff0219169083151502179055506002546006541015600a60026101000a81548160ff02191690831515021790555090565b60015481565b6000600760009054906101000a900473ffffffffffffffffffffffffffffffffffffffff1673ffffffffffffffffffffffffffffffffffffffff163373ffffffffffffffffffffffffffffffffffffffff1614151561059b57600080fd5b600a60009054906101000a900460ff1615156105d3574260048190555062093a806008540260045401600581905550600190506105d8565b600090505b90565b60065481565b600554815600a165627a7a72305820326baf99a804d55e23d2fbb4c7f57aadaeadd9192b2d935b0b55bdbe0c55f5c00029a165627a7a72305820b25da65d80cf5b6b133e890bf8d5a98d4d27dc6975616266ec16e01d10f5f6660029",
  "source": "pragma solidity ^0.4.24;\n\nimport \"./ICampaignManager.sol\";\nimport \"./ChainCampaign.sol\";\n\ncontract CampaignManager is ICampaignManager {\n\n    uint256 public totalCampaigns;\n    mapping (uint256 => address) private campaigns;\n\n    constructor() public {\n        totalCampaigns = 0;\n    }\n\n    function addNew(bytes32 _name, bytes32 _description, uint256 _goal, uint256 _weeksDuration) external {\n        address newCampaign = new ChainCampaign(_name, _description, _goal, _weeksDuration);\n        campaigns[totalCampaigns] = newCampaign;\n\n        emit LogCampaignCreated(totalCampaigns, newCampaign);\n        ++totalCampaigns;\n    }\n\n    function getCampaignAddress(uint256 _campaignId) external view returns (address) {\n        return campaigns[_campaignId];\n    }\n}\n\n",
  "sourcePath": "/home/danilo/_dev/blockchain/nisit_meetup/truffle/contracts/CampaignManager.sol",
  "compiler": {
    "name": "solc",
    "version": "0.4.24+commit.e67f0147.Emscripten.clang"
  },
  "schemaVersion": "2.0.1",
  "updatedAt": "2018-08-29T15:20:28.797Z"
}